:100000000C942A000C9447000C9447000C94470071
:100010000C9447000C9447000C9447000C94470044
:100020000C9447000C9447000C9447000C94470034
:100030000C9447000C9447000C9447000C94470024
:100040000C9447000C9447000C9447000C94470014
:100050000C94470011241FBECFE5D8E0DEBFCDBF12
:1000600010E0A0E6B0E0ECE4FBE002C005900D92E9
:10007000A636B107D9F710E0A6E6B0E001C01D92A0
:10008000A636B107E1F70E94AD030C94A4050C94C9
:1000900000003C9A3E9A3F9A379A319A329A0895D4
:1000A000369A86B186FDFDCF84B190E045B1342FFC
:1000B00020E0822B932B0895843409F471C0853499
:1000C00048F4823499F1833408F04DC0813409F04A
:1000D00083C00FC0823651F1833620F4813609F097
:1000E0007BC007C0833609F43EC0843609F074C073
:1000F00057C0413069F42AB381E090E0AC0102C0FE
:10010000440F551F6A95E2F7BA01622B6ABB089546
:100110002AB381E090E0AC0102C0440F551F6A95FC
:10012000E2F7BA01609562236ABB0895413069F431
:1001300027B381E090E0AC0102C0440F551F6A95DF
:10014000E2F7BA01622B67BB089527B381E090E024
:10015000AC0102C0440F551F6A95E2F7BA016095E1
:10016000622367BB0895413069F424B381E090E0D5
:10017000AC0102C0440F551F6A95E2F7BA01622B29
:1001800064BB089524B381E090E0AC0102C0440F49
:10019000551F6A95E2F7BA016095622364BB089522
:1001A000413069F421B381E090E0AC0102C0440F1A
:1001B000551F6A95E2F7BA01622B61BB089521B31E
:1001C00081E090E0AC0102C0440F551F6A95E2F750
:1001D000BA016095622361BB0895843409F471C04B
:1001E000853448F4823499F1833408F04DC0813469
:1001F00009F083C00FC0823651F1833620F4813676
:1002000009F07BC007C0833609F43EC0843609F08C
:1002100074C057C0413069F42BB381E090E0AC0169
:1002200002C0440F551F6A95E2F7BA01622B6BBBFF
:1002300008952BB381E090E0AC0102C0440F551F3C
:100240006A95E2F7BA01609562236BBB089541306D
:1002500069F428B381E090E0AC0102C0440F551F5F
:100260006A95E2F7BA01622B68BB089528B381E072
:1002700090E0AC0102C0440F551F6A95E2F7BA0145
:100280006095622368BB0895413069F425B381E02D
:1002900090E0AC0102C0440F551F6A95E2F7BA0125
:1002A000622B65BB089525B381E090E0AC0102C0EC
:1002B000440F551F6A95E2F7BA016095622365BB4A
:1002C0000895413069F422B381E090E0AC0102C0AE
:1002D000440F551F6A95E2F7BA01622B62BB08957D
:1002E00022B381E090E0AC0102C0440F551F6A9533
:1002F000E2F7BA016095622362BB0895843409F481
:100300003DC0853440F48234F9F0833450F58134B3
:1003100009F040C00CC08236B9F0833618F481363B
:10032000C9F505C08336E9F08436A1F527C02BB3A3
:1003300081E090E0AC0102C0440F551F6A95E2F7DE
:10034000BA0162276BBB089528B381E090E0AC014D
:1003500002C0440F551F6A95E2F7BA01622768BBD5
:10036000089525B381E090E0AC0102C0440F551F11
:100370006A95E2F7BA01622765BB089522B381E06E
:1003800090E0AC0102C0440F551F6A95E2F7BA0134
:10039000622762BB08958434B1F1853438F4823425
:1003A000E1F0833428F58134C1F50CC08236A9F020
:1003B000833618F4813689F505C08336C9F0843652
:1003C00061F521C029B330E0C90102C09595879538
:1003D0006A95E2F7982F917020C026B330E0C901EA
:1003E00002C0959587956A95E2F7982F917015C090
:1003F00023B330E0C90102C0959587956A95E2F76D
:10040000982F91700AC020B330E0C90102C09595C1
:1004100087956A95E2F7982F9170892F0895843413
:10042000D9F0853438F4823499F0833498F48134E7
:10043000A1F40CC0823661F0833618F4813669F479
:1004400005C0833639F0843641F406C06ABB08958E
:1004500067BB089564BB089561BB08958434D9F0E7
:10046000853438F4823499F0833498F48134A1F4DB
:100470000CC0823661F0833618F4813669F405C009
:10048000833639F0843641F406C06BBB089568BBEF
:10049000089565BB089562BB0895843409F18534DD
:1004A00038F48234A9F08334B8F48134E1F40CC018
:1004B000823671F0833618F48136A9F405C083368C
:1004C00059F0843681F40CC08BB380958BBB0895B2
:1004D00088B3809588BB089585B3809585BB0895C2
:1004E00082B3809582BB08958434D9F0853438F482
:1004F000823499F0833498F48134A1F40CC08236AC
:1005000061F0833618F4813669F405C0833639F01A
:10051000843641F406C099B305C096B303C093B3C3
:1005200001C090B3892F08950E94ED000895CF93E4
:10053000DF93C82FD62F462F417060E00E94ED0058
:100540004D2F469541708C2F61E00E94ED004D2F9C
:100550004695469541708C2F62E00E94ED00D6953D
:10056000D695D6954D2F41708C2F63E00E94ED00FB
:10057000DF91CF910895CF93DF93C82FD62F462FC9
:10058000417064E00E94ED004D2F469541708C2F24
:1005900065E00E94ED004D2F4695469541708C2FE9
:1005A00066E00E94ED00D695D695D6954D2F417008
:1005B0008C2F67E00E94ED00DF91CF91089582E4D7
:1005C00060E041E00E94ED008FE99FE00197F1F7C4
:1005D00000C0000082E460E040E00E94ED008FE98E
:1005E0009FE00197F1F700C000000895CF93C82F56
:1005F00082E461E040E00E94ED006C2F62956F7034
:1006000081E40E94BB020E94DF0281E46C2F0E9401
:10061000BB020E94DF028FEC97E00197F1F700C068
:100620000000CF910895CF93C82F82E461E041E0AC
:100630000E94ED006C2F62956F7081E40E94BB02F6
:100640000E94DF0281E46C2F0E94BB020E94DF0245
:100650008FEC97E00197F1F700C00000CF9108956B
:1006600081E00E94F6028FE496E40197F1F700C062
:100670000000089582E00E94F6028FE496E401975C
:10068000F1F700C0000008958FE799EAA3E08150D8
:100690009040A040E1F700C0000081E464E041E048
:1006A0000E945C0081E465E041E00E945C0081E41E
:1006B00066E041E00E945C0081E467E041E00E9466
:1006C0005C0082E460E041E00E945C0082E461E062
:1006D00041E00E945C0082E462E041E00E945C0034
:1006E00082E462E040E00E94ED000E943A0388E26A
:1006F0000E94F6028CE00E94F6020E94300386E01F
:100700000E94F6020895CF93DF93EC01888188233D
:1007100031F021960E94130389918823D9F7DF9144
:10072000CF910895282F2150223070F4613170F458
:10073000662371F0813019F4962F91580AC08230E7
:1007400041F4962F915405C090E803C090E801C091
:1007500090E8892F0E94F60208950E9449000E94A5
:10076000440380E690E00E9483030AE010E00F2E2D
:10077000F4E6DF2EF02DDAE00F2EF8EEEF2EF3E0A8
:10078000FF2EF02D0E945000BC0180E090E00E94FE
:10079000930420E030E040E250E40E94F9040E941B
:1007A0006704DC01CB0123E0883E920708F45AC0BD
:1007B000885E9340B8010E949005C62F6A30A8F465
:1007C00081E066E00E9492038C2F805D0E941303FB
:1007D0008FED0E94130383E40E94130380E20E94C2
:1007E000130380E20E941303CDCF6436D0F481E07E
:1007F00066E00E9492038C2F6D2F0E948405C92F02
:10080000805D0E9413038C2F805D0E9413038FED87
:100810000E94130383E40E94130380E20E941303E7
:10082000B1CF81E066E00E9492038C2F6D2D0E9473
:100830008405805D0E9413038C2F6D2F0E94840518
:10084000C92F0E948405892F805D0E9413038C2F7D
:10085000805D0E9413038FED0E94130383E40E94C6
:10086000130390CF9701281B390BC901B8010E94CF
:100870009005C62F81E066E00E9492038DE20E94FF
:100880001303CA3070F48C2F805D0E9413038FED28
:100890000E94130383E40E94130380E20E94130367
:1008A00071CFC43608F06ECF8C2F6D2F0E94840557
:1008B000C92F805D0E9413038C2F805D0E9413035B
:1008C0008FED0E94130383E40E9413035BCF70D06B
:1008D00088F09F5790F0B92F9927B751A0F0D1F029
:1008E000660F771F881F991F1AF0BA95C9F712C0B3
:1008F000B13081F077D0B1E0089574C0672F782FC0
:100900008827B85F39F0B93FCCF38695779567951E
:10091000B395D9F73EF490958095709561957F4F8A
:100920008F4F9F4F0895E89409C097FB3EF4909530
:100930008095709561957F4F8F4F9F4F9923A9F0B8
:10094000F92F96E9BB279395F69587957795679547
:10095000B795F111F8CFFAF4BB0F11F460FF1BC08B
:100960006F5F7F4F8F4F9F4F16C0882311F096E91E
:1009700011C0772321F09EE8872F762F05C06623CC
:1009800071F096E8862F70E060E02AF09A95660F85
:10099000771F881FDAF7880F9695879597F908953E
:1009A00057FD9058440F551F59F05F3F71F0479520
:1009B000880F97FB991F61F09F3F79F08795089505
:1009C000121613061406551FF2CF4695F1DF08C024
:1009D000161617061806991FF1CF86957105610541
:1009E00008940895E894BB2766277727CB0197F9E9
:1009F00008950BD078C069D028F06ED018F09523F8
:100A000009F05AC05FC01124EECFCADFA0F3959F52
:100A1000D1F3950F50E0551F629FF001729FBB27E5
:100A2000F00DB11D639FAA27F00DB11DAA1F649F91
:100A30006627B00DA11D661F829F2227B00DA11D44
:100A4000621F739FB00DA11D621F839FA00D611DCA
:100A5000221F749F3327A00D611D231F849F600DEB
:100A6000211D822F762F6A2F11249F5750408AF024
:100A7000E1F088234AF0EE0FFF1FBB1F661F771FB0
:100A8000881F91505040A9F79E3F510570F014C047
:100A9000AACF5F3FECF3983EDCF386957795679598
:100AA000B795F795E7959F5FC1F7FE2B880F911DCE
:100AB0009695879597F9089597F99F6780E870E074
:100AC00060E008959FEF80EC089500240A941616C4
:100AD000170618060906089500240A94121613062C
:100AE000140605060895092E0394000C11F48823BA
:100AF00052F0BB0F40F4BF2B11F460FF04C06F5FD6
:100B00007F4F8F4F9F4F0895991B79E004C0991F25
:100B1000961708F0961B881F7A95C9F78095089557
:100B2000AA1BBB1B51E107C0AA1FBB1FA617B70713
:100B300010F0A61BB70B881F991F5A95A9F780952F
:0C0B40009095BC01CD010895F894FFCF02
:060B4C0054656D703D00D0
:00000001FF
